{
  "contractName": "AuctionBidding",
  "abi": [
    {
      "inputs": [],
      "payable": false,
      "stateMutability": "nonpayable",
      "type": "constructor"
    },
    {
      "constant": false,
      "inputs": [
        {
          "name": "auctionId",
          "type": "uint256"
        },
        {
          "name": "bidValue",
          "type": "uint256"
        }
      ],
      "name": "saveUserBidForAuction",
      "outputs": [
        {
          "name": "",
          "type": "uint256"
        }
      ],
      "payable": false,
      "stateMutability": "nonpayable",
      "type": "function"
    },
    {
      "constant": false,
      "inputs": [
        {
          "name": "auctionId",
          "type": "uint256"
        }
      ],
      "name": "getHighestBidderByAuctionId",
      "outputs": [
        {
          "name": "",
          "type": "uint256"
        }
      ],
      "payable": false,
      "stateMutability": "nonpayable",
      "type": "function"
    },
    {
      "constant": false,
      "inputs": [
        {
          "name": "auctionId",
          "type": "uint256"
        }
      ],
      "name": "announceWinnerForAuction",
      "outputs": [
        {
          "name": "",
          "type": "address"
        },
        {
          "name": "",
          "type": "uint256"
        }
      ],
      "payable": false,
      "stateMutability": "nonpayable",
      "type": "function"
    },
    {
      "constant": false,
      "inputs": [
        {
          "name": "auctionId",
          "type": "uint256"
        }
      ],
      "name": "endAuction",
      "outputs": [
        {
          "name": "",
          "type": "address"
        }
      ],
      "payable": false,
      "stateMutability": "nonpayable",
      "type": "function"
    }
  ],
  "bytecode": "0x608060405234801561001057600080fd5b50336000806101000a81548173ffffffffffffffffffffffffffffffffffffffff021916908373ffffffffffffffffffffffffffffffffffffffff1602179055506106be806100606000396000f300608060405260043610610062576000357c0100000000000000000000000000000000000000000000000000000000900463ffffffff16806379f79de914610067578063a9672bad146100db578063b9a2de3a1461011c578063df4c8b3514610189575b600080fd5b34801561007357600080fd5b50610092600480360381019080803590602001909291905050506101d4565b604051808373ffffffffffffffffffffffffffffffffffffffff1673ffffffffffffffffffffffffffffffffffffffff1681526020018281526020019250505060405180910390f35b3480156100e757600080fd5b506101066004803603810190808035906020019092919050505061036d565b6040518082815260200191505060405180910390f35b34801561012857600080fd5b50610147600480360381019080803590602001909291905050506103b5565b604051808273ffffffffffffffffffffffffffffffffffffffff1673ffffffffffffffffffffffffffffffffffffffff16815260200191505060405180910390f35b34801561019557600080fd5b506101be6004803603810190808035906020019092919080359060200190929190505050610545565b6040518082815260200191505060405180910390f35b60008060008060009054906101000a900473ffffffffffffffffffffffffffffffffffffffff1673ffffffffffffffffffffffffffffffffffffffff163373ffffffffffffffffffffffffffffffffffffffff16141561036757600160008581526020019081526020016000209050600015158160020160009054906101000a900460ff161515141561026657600080fd5b60008160020160006101000a81548160ff02191690831515021790555080600160008681526020019081526020016000206000820160009054906101000a900473ffffffffffffffffffffffffffffffffffffffff168160000160006101000a81548173ffffffffffffffffffffffffffffffffffffffff021916908373ffffffffffffffffffffffffffffffffffffffff160217905550600182015481600101556002820160009054906101000a900460ff168160020160006101000a81548160ff0219169083151502179055509050508060000160009054906101000a900473ffffffffffffffffffffffffffffffffffffffff168160010154925092505b50915091565b600080600160008481526020019081526020016000209050600015158160020160009054906101000a900460ff16151514156103a857600080fd5b8060010154915050919050565b6000806000809054906101000a900473ffffffffffffffffffffffffffffffffffffffff1673ffffffffffffffffffffffffffffffffffffffff163373ffffffffffffffffffffffffffffffffffffffff16141561053f57600160008481526020019081526020016000209050600015158160020160009054906101000a900460ff161515141561044557600080fd5b60008160020160006101000a81548160ff02191690831515021790555080600160008581526020019081526020016000206000820160009054906101000a900473ffffffffffffffffffffffffffffffffffffffff168160000160006101000a81548173ffffffffffffffffffffffffffffffffffffffff021916908373ffffffffffffffffffffffffffffffffffffffff160217905550600182015481600101556002820160009054906101000a900460ff168160020160006101000a81548160ff0219169083151502179055509050508060000160009054906101000a900473ffffffffffffffffffffffffffffffffffffffff1691505b50919050565b600080600160008581526020019081526020016000209050828160010154101561068857828160010181905550338160000160006101000a81548173ffffffffffffffffffffffffffffffffffffffff021916908373ffffffffffffffffffffffffffffffffffffffff16021790555060018160020160006101000a81548160ff02191690831515021790555080600160008681526020019081526020016000206000820160009054906101000a900473ffffffffffffffffffffffffffffffffffffffff168160000160006101000a81548173ffffffffffffffffffffffffffffffffffffffff021916908373ffffffffffffffffffffffffffffffffffffffff160217905550600182015481600101556002820160009054906101000a900460ff168160020160006101000a81548160ff0219169083151502179055509050505b82915050929150505600a165627a7a7230582059b75a4bf4d7cd6c64ce432d57e38a9af3454ae31ab242a33e633d06a31746b50029",
  "source": "pragma solidity ^0.4.24;\r\ncontract AuctionBidding {\r\n  \r\n    struct AuctionHighestBidder {\r\n        address highestBidder;\r\n        uint256 highestBidValue;\r\n        bool active;\r\n    }\r\n    address auctionOwner;\r\n    \r\n    function AuctionBidding() {\r\n        auctionOwner = msg.sender;    \r\n    }\r\n    \r\n    modifier onlyAdmin () {\r\n        if (msg.sender == auctionOwner) {\r\n            _;\r\n        }\r\n    }\r\n\r\n\r\n    /*Highest Bidder details for particular auction id*/\r\n    mapping (uint256 => AuctionHighestBidder) auctionHighestBidder;\r\n    \r\n    function saveUserBidForAuction(uint256 auctionId, uint256 bidValue) public returns (uint256) {\r\n        AuctionHighestBidder bidder = auctionHighestBidder[auctionId];\r\n        if (bidder.highestBidValue < bidValue) {\r\n            bidder.highestBidValue = bidValue;\r\n            bidder.highestBidder = msg.sender;\r\n            bidder.active = true;\r\n            auctionHighestBidder[auctionId] = bidder;\r\n        }\r\n        return bidValue;\r\n    }\r\n    \r\n    /*\r\n    This function gives me details of higher bidder at any point of time\r\n    */\r\n    function getHighestBidderByAuctionId(uint256 auctionId) public returns (uint256) {\r\n        AuctionHighestBidder storage bidder = auctionHighestBidder[auctionId];\r\n        if (bidder.active == false) \r\n            throw ;\r\n        return bidder.highestBidValue;\r\n    }\r\n    \r\n    /*\r\n    Announce the winner and deactivate auction\r\n    Need help - how to enable cross contract communication\r\n    */\r\n    function announceWinnerForAuction(uint256 auctionId) public onlyAdmin returns (address, uint256) {\r\n        AuctionHighestBidder storage bidder = auctionHighestBidder[auctionId];\r\n         if (bidder.active == false) \r\n            throw ;\r\n        //Deduct coin amount from his wallet..TO DO: take help from mentor\r\n        //learn how to delete bid from system -- To do: take help from mentor\r\n       // auctionHighestBidder[auctionId] = 0; \r\n        //auctionBidsByUserList[auctionId] = 0;\r\n        bidder.active = false;\r\n        auctionHighestBidder[auctionId] = bidder;\r\n        return (bidder.highestBidder, bidder.highestBidValue);\r\n    }\r\n    \r\n    //how to clear auction from map or disable auction..\r\n    function endAuction(uint256 auctionId) public onlyAdmin returns (address) {\r\n        AuctionHighestBidder storage bidder = auctionHighestBidder[auctionId];\r\n        if (bidder.active == false) \r\n            throw ;\r\n        bidder.active = false;\r\n        auctionHighestBidder[auctionId] = bidder;\r\n        return bidder.highestBidder;\r\n    }\r\n    \r\n \r\n}",
  "sourcePath": "c:\\blockchain\\auction-app-dev\\final\\contracts\\AuctionBidding.sol",
  "compiler": {
    "name": "solc",
    "version": "0.4.24+commit.e67f0147.Emscripten.clang"
  },
  "schemaVersion": "2.0.1",
  "updatedAt": "2018-08-04T09:01:58.929Z"
}