{
  "contractName": "AuctionBidding",
  "abi": [
    {
      "inputs": [
        {
          "name": "ftbcTokenAddress",
          "type": "address"
        }
      ],
      "payable": false,
      "stateMutability": "nonpayable",
      "type": "constructor"
    },
    {
      "payable": true,
      "stateMutability": "payable",
      "type": "fallback"
    },
    {
      "constant": true,
      "inputs": [
        {
          "name": "tokenAddress",
          "type": "address"
        }
      ],
      "name": "getBalanceOf",
      "outputs": [
        {
          "name": "",
          "type": "uint256"
        }
      ],
      "payable": false,
      "stateMutability": "view",
      "type": "function"
    },
    {
      "constant": false,
      "inputs": [
        {
          "name": "to",
          "type": "address"
        },
        {
          "name": "value",
          "type": "uint256"
        }
      ],
      "name": "transferAuctionToken",
      "outputs": [
        {
          "name": "",
          "type": "bool"
        }
      ],
      "payable": true,
      "stateMutability": "payable",
      "type": "function"
    },
    {
      "constant": false,
      "inputs": [
        {
          "name": "auctionId",
          "type": "uint256"
        },
        {
          "name": "bidValue",
          "type": "uint256"
        }
      ],
      "name": "saveUserBidForAuction",
      "outputs": [
        {
          "name": "",
          "type": "uint256"
        }
      ],
      "payable": false,
      "stateMutability": "nonpayable",
      "type": "function"
    },
    {
      "constant": false,
      "inputs": [
        {
          "name": "from",
          "type": "address"
        },
        {
          "name": "to",
          "type": "address"
        },
        {
          "name": "value",
          "type": "uint256"
        }
      ],
      "name": "releaseAuctionTokens",
      "outputs": [
        {
          "name": "",
          "type": "bool"
        }
      ],
      "payable": true,
      "stateMutability": "payable",
      "type": "function"
    },
    {
      "constant": true,
      "inputs": [
        {
          "name": "auctionId",
          "type": "uint256"
        }
      ],
      "name": "getHighestBidderByAuctionId",
      "outputs": [
        {
          "name": "",
          "type": "uint256"
        }
      ],
      "payable": false,
      "stateMutability": "view",
      "type": "function"
    },
    {
      "constant": false,
      "inputs": [
        {
          "name": "auctionId",
          "type": "uint256"
        }
      ],
      "name": "announceWinnerForAuction",
      "outputs": [
        {
          "name": "",
          "type": "address"
        },
        {
          "name": "",
          "type": "uint256"
        }
      ],
      "payable": false,
      "stateMutability": "nonpayable",
      "type": "function"
    },
    {
      "constant": false,
      "inputs": [
        {
          "name": "auctionId",
          "type": "uint256"
        }
      ],
      "name": "endAuction",
      "outputs": [
        {
          "name": "",
          "type": "address"
        }
      ],
      "payable": false,
      "stateMutability": "nonpayable",
      "type": "function"
    },
    {
      "constant": true,
      "inputs": [],
      "name": "getContractBalance",
      "outputs": [
        {
          "name": "",
          "type": "uint256"
        }
      ],
      "payable": false,
      "stateMutability": "view",
      "type": "function"
    }
  ],
  "bytecode": "0x6080604052600a60005534801561001557600080fd5b50604051602080610cd78339810180604052810190808051906020019092919050505080600260006101000a81548173ffffffffffffffffffffffffffffffffffffffff021916908373ffffffffffffffffffffffffffffffffffffffff16021790555033600160006101000a81548173ffffffffffffffffffffffffffffffffffffffff021916908373ffffffffffffffffffffffffffffffffffffffff16021790555050610c0d806100ca6000396000f30060806040526004361061008e576000357c0100000000000000000000000000000000000000000000000000000000900463ffffffff1680636f9fb98a1461019a57806373796556146101c557806379f79de91461021d5780639b96eece14610291578063a9672bad146102e8578063aa20fa7314610329578063b9a2de3a146103a1578063df4c8b351461040e575b6000805434029050600260009054906101000a900473ffffffffffffffffffffffffffffffffffffffff1673ffffffffffffffffffffffffffffffffffffffff1663a9059cbb33836040518363ffffffff167c0100000000000000000000000000000000000000000000000000000000028152600401808373ffffffffffffffffffffffffffffffffffffffff1673ffffffffffffffffffffffffffffffffffffffff16815260200182815260200192505050602060405180830381600087803b15801561015b57600080fd5b505af115801561016f573d6000803e3d6000fd5b505050506040513d602081101561018557600080fd5b81019080805190602001909291905050505050005b3480156101a657600080fd5b506101af610459565b6040518082815260200191505060405180910390f35b610203600480360381019080803573ffffffffffffffffffffffffffffffffffffffff16906020019092919080359060200190929190505050610478565b604051808215151515815260200191505060405180910390f35b34801561022957600080fd5b50610248600480360381019080803590602001909291905050506105c1565b604051808373ffffffffffffffffffffffffffffffffffffffff1673ffffffffffffffffffffffffffffffffffffffff1681526020018281526020019250505060405180910390f35b34801561029d57600080fd5b506102d2600480360381019080803573ffffffffffffffffffffffffffffffffffffffff169060200190929190505050610666565b6040518082815260200191505060405180910390f35b3480156102f457600080fd5b5061031360048036038101908080359060200190929190505050610767565b6040518082815260200191505060405180910390f35b610387600480360381019080803573ffffffffffffffffffffffffffffffffffffffff169060200190929190803573ffffffffffffffffffffffffffffffffffffffff1690602001909291908035906020019092919050505061078c565b604051808215151515815260200191505060405180910390f35b3480156103ad57600080fd5b506103cc600480360381019080803590602001909291905050506108d0565b604051808273ffffffffffffffffffffffffffffffffffffffff1673ffffffffffffffffffffffffffffffffffffffff16815260200191505060405180910390f35b34801561041a57600080fd5b506104436004803603810190808035906020019092919080359060200190929190505050610a61565b6040518082815260200191505060405180910390f35b60003073ffffffffffffffffffffffffffffffffffffffff1631905090565b6000806000339150600260009054906101000a900473ffffffffffffffffffffffffffffffffffffffff1673ffffffffffffffffffffffffffffffffffffffff166323b872dd3387876040518463ffffffff167c0100000000000000000000000000000000000000000000000000000000028152600401808473ffffffffffffffffffffffffffffffffffffffff1673ffffffffffffffffffffffffffffffffffffffff1681526020018373ffffffffffffffffffffffffffffffffffffffff1673ffffffffffffffffffffffffffffffffffffffff1681526020018281526020019350505050602060405180830381600087803b15801561057957600080fd5b505af115801561058d573d6000803e3d6000fd5b505050506040513d60208110156105a357600080fd5b81019080805190602001909291905050509050809250505092915050565b6000806000600160009054906101000a900473ffffffffffffffffffffffffffffffffffffffff1673ffffffffffffffffffffffffffffffffffffffff163373ffffffffffffffffffffffffffffffffffffffff161415610660576003600085815260200190815260200160002090508060000160009054906101000a900473ffffffffffffffffffffffffffffffffffffffff168160010154925092505b50915091565b6000600260009054906101000a900473ffffffffffffffffffffffffffffffffffffffff1673ffffffffffffffffffffffffffffffffffffffff166370a08231836040518263ffffffff167c0100000000000000000000000000000000000000000000000000000000028152600401808273ffffffffffffffffffffffffffffffffffffffff1673ffffffffffffffffffffffffffffffffffffffff168152602001915050602060405180830381600087803b15801561072557600080fd5b505af1158015610739573d6000803e3d6000fd5b505050506040513d602081101561074f57600080fd5b81019080805190602001909291905050509050919050565b6000806003600084815260200190815260200160002090508060010154915050919050565b600080600260009054906101000a900473ffffffffffffffffffffffffffffffffffffffff1673ffffffffffffffffffffffffffffffffffffffff1663055c04678686866040518463ffffffff167c0100000000000000000000000000000000000000000000000000000000028152600401808473ffffffffffffffffffffffffffffffffffffffff1673ffffffffffffffffffffffffffffffffffffffff1681526020018373ffffffffffffffffffffffffffffffffffffffff1673ffffffffffffffffffffffffffffffffffffffff1681526020018281526020019350505050602060405180830381600087803b15801561088857600080fd5b505af115801561089c573d6000803e3d6000fd5b505050506040513d60208110156108b257600080fd5b81019080805190602001909291905050509050809150509392505050565b600080600160009054906101000a900473ffffffffffffffffffffffffffffffffffffffff1673ffffffffffffffffffffffffffffffffffffffff163373ffffffffffffffffffffffffffffffffffffffff161415610a5b57600360008481526020019081526020016000209050600015158160020160009054906101000a900460ff161515141561096157600080fd5b60008160020160006101000a81548160ff02191690831515021790555080600360008581526020019081526020016000206000820160009054906101000a900473ffffffffffffffffffffffffffffffffffffffff168160000160006101000a81548173ffffffffffffffffffffffffffffffffffffffff021916908373ffffffffffffffffffffffffffffffffffffffff160217905550600182015481600101556002820160009054906101000a900460ff168160020160006101000a81548160ff0219169083151502179055509050508060000160009054906101000a900473ffffffffffffffffffffffffffffffffffffffff1691505b50919050565b60008060006003600086815260200190815260200160002091508382600101541015610bd657819050838260010181905550338260000160006101000a81548173ffffffffffffffffffffffffffffffffffffffff021916908373ffffffffffffffffffffffffffffffffffffffff16021790555060018260020160006101000a81548160ff02191690831515021790555081600360008781526020019081526020016000206000820160009054906101000a900473ffffffffffffffffffffffffffffffffffffffff168160000160006101000a81548173ffffffffffffffffffffffffffffffffffffffff021916908373ffffffffffffffffffffffffffffffffffffffff160217905550600182015481600101556002820160009054906101000a900460ff168160020160006101000a81548160ff021916908315150217905550905050610bd4600160009054906101000a900473ffffffffffffffffffffffffffffffffffffffff1685610478565b505b8392505050929150505600a165627a7a72305820c1ee4866230d335a1e9fae82d526ca54e3dea3293759d57b7a76157801efd52b0029",
  "source": "pragma solidity ^0.4.24;\nimport \"./XYZToken.sol\";\n\ncontract AuctionBidding {\n  \n    struct AuctionHighestBidder {\n        address highestBidder;\n        uint256 highestBidValue;\n        bool active;\n    }\n\n    uint256 unitsOneEthCanBuy = 10; \n     \n    address auctionOwner;\n    XYZToken ftbcToken;\n    \n    function AuctionBidding(address ftbcTokenAddress) {\n        ftbcToken = XYZToken(ftbcTokenAddress);\n        auctionOwner = msg.sender; \n    }\n    \n    modifier onlyAdmin () {\n        if (msg.sender == auctionOwner) {\n            _;\n        }\n    }\n    \n    \n    /*\n    get the balance\n    */\n    function getBalanceOf(address tokenAddress) public constant returns(uint256) {\n        return ftbcToken.balanceOf(tokenAddress);\n    }\n\n    /*\n    function buyFTBCToken() public payable returns (uint256)  {\n        address myaddr = address(ftbcToken);\n        myaddr.sendTransaction(msg.value);\n\n    }*/\n    \n   /* function buyTokenForBidding(uint256 value) public payable returns (uint256)  {\n        uint256 token = ftbcToken.buyToken(value);\n        return token;\n\n    }*/\n    \n    function transferAuctionToken(address to, uint256 value) public payable returns (bool) {\n        address tmpFrom = msg.sender;\n        //address tmpTo = to;\n        \n        bool status = ftbcToken.transferFrom(msg.sender,to ,value);\n        return status;\n    }\n    \n    /*Highest Bidder details for particular auction id*/\n    mapping (uint256 => AuctionHighestBidder) auctionHighestBidder;\n    \n    //If the bidder amount is high, release the token of last bidder\n    //Approval function implementation and transfer from using msg.sender\n    function saveUserBidForAuction(uint256 auctionId, uint256 bidValue) public returns (uint256) {\n        AuctionHighestBidder bidder = auctionHighestBidder[auctionId];\n        if (bidder.highestBidValue < bidValue) {\n            AuctionHighestBidder lastBidder = bidder;\n            //release tokens for him\n           // this.releaseAuctionTokens(auctionOwner, lastBidder.highestBidder, lastBidder.highestBidValue);\n            bidder.highestBidValue = bidValue;\n            bidder.highestBidder = msg.sender;\n            bidder.active = true;\n            auctionHighestBidder[auctionId] = bidder;\n            //ftbcToken.transferFrom(msg.sender,to ,value);\n            transferAuctionToken(auctionOwner,bidValue);\n        }\n        return bidValue;\n    }\n    \n    function releaseAuctionTokens(address from, address to, uint256 value) public payable returns (bool) {\n        bool status = ftbcToken.transferBetweenAccounts(from, to, value);\n        return status;\n    }\n    /*\n    This function gives me details of higher bidder at any point of time\n    ToDo: Return bidder address\n    */\n    function getHighestBidderByAuctionId(uint256 auctionId) public constant returns (uint256) {\n        AuctionHighestBidder storage bidder = auctionHighestBidder[auctionId];\n        return bidder.highestBidValue;\n    }\n    \n    /*\n    Announce the winner and deactivate auction\n    Need help - how to enable cross contract communication\n    */\n    function announceWinnerForAuction(uint256 auctionId) public onlyAdmin returns (address, uint256) {\n        AuctionHighestBidder storage bidder = auctionHighestBidder[auctionId];\n        //Deduct coin amount from his wallet..\n        //learn how to delete bid from system -- To do: take help from mentor\n       // auctionHighestBidder[auctionId] = 0; \n        //auctionBidsByUserList[auctionId] = 0;\n        return (bidder.highestBidder, bidder.highestBidValue);\n    }\n    \n    //how to clear auction from map or disable auction..\n    function endAuction(uint256 auctionId) public onlyAdmin returns (address) {\n        AuctionHighestBidder storage bidder = auctionHighestBidder[auctionId];\n        if (bidder.active == false) \n            throw ;\n        bidder.active = false;\n        auctionHighestBidder[auctionId] = bidder;\n        return bidder.highestBidder;\n    }\n    \n    function() payable{\n        uint256 tokenToBuy = msg.value*unitsOneEthCanBuy;\n        ftbcToken.transfer(msg.sender, tokenToBuy);\n       // address(this).transfer(msg.value);\n    }\n    \n    function getContractBalance() public constant returns (uint256) {\n        return address(this).balance;\n    }\n\n\n}",
  "sourcePath": "C:\\Users\\rkuma\\final\\contracts\\AuctionBidding.sol",
  "compiler": {
    "name": "solc",
    "version": "0.4.24+commit.e67f0147.Emscripten.clang"
  },
  "schemaVersion": "2.0.1",
  "updatedAt": "2018-08-11T12:51:11.265Z"
}