{
  "contractName": "AuctionBidding",
  "abi": [
    {
      "inputs": [
        {
          "name": "ftbcTokenAddress",
          "type": "address"
        }
      ],
      "payable": false,
      "stateMutability": "nonpayable",
      "type": "constructor"
    },
    {
      "payable": true,
      "stateMutability": "payable",
      "type": "fallback"
    },
    {
      "constant": true,
      "inputs": [
        {
          "name": "tokenAddress",
          "type": "address"
        }
      ],
      "name": "getBalanceOf",
      "outputs": [
        {
          "name": "",
          "type": "uint256"
        }
      ],
      "payable": false,
      "stateMutability": "view",
      "type": "function"
    },
    {
      "constant": false,
      "inputs": [
        {
          "name": "to",
          "type": "address"
        },
        {
          "name": "value",
          "type": "uint256"
        }
      ],
      "name": "transferAuctionToken",
      "outputs": [
        {
          "name": "",
          "type": "bool"
        }
      ],
      "payable": true,
      "stateMutability": "payable",
      "type": "function"
    },
    {
      "constant": false,
      "inputs": [
        {
          "name": "auctionId",
          "type": "uint256"
        },
        {
          "name": "bidValue",
          "type": "uint256"
        }
      ],
      "name": "saveUserBidForAuction",
      "outputs": [
        {
          "name": "",
          "type": "uint256"
        }
      ],
      "payable": false,
      "stateMutability": "nonpayable",
      "type": "function"
    },
    {
      "constant": false,
      "inputs": [
        {
          "name": "from",
          "type": "address"
        },
        {
          "name": "to",
          "type": "address"
        },
        {
          "name": "value",
          "type": "uint256"
        }
      ],
      "name": "releaseAuctionTokens",
      "outputs": [
        {
          "name": "",
          "type": "bool"
        }
      ],
      "payable": true,
      "stateMutability": "payable",
      "type": "function"
    },
    {
      "constant": true,
      "inputs": [
        {
          "name": "auctionId",
          "type": "uint256"
        }
      ],
      "name": "getHighestBidderByAuctionId",
      "outputs": [
        {
          "name": "",
          "type": "uint256"
        }
      ],
      "payable": false,
      "stateMutability": "view",
      "type": "function"
    },
    {
      "constant": false,
      "inputs": [
        {
          "name": "auctionId",
          "type": "uint256"
        }
      ],
      "name": "announceWinnerForAuction",
      "outputs": [
        {
          "name": "",
          "type": "string"
        },
        {
          "name": "",
          "type": "uint256"
        }
      ],
      "payable": false,
      "stateMutability": "nonpayable",
      "type": "function"
    },
    {
      "constant": false,
      "inputs": [
        {
          "name": "auctionId",
          "type": "uint256"
        }
      ],
      "name": "endAuction",
      "outputs": [
        {
          "name": "",
          "type": "address"
        }
      ],
      "payable": false,
      "stateMutability": "nonpayable",
      "type": "function"
    },
    {
      "constant": true,
      "inputs": [],
      "name": "getContractBalance",
      "outputs": [
        {
          "name": "",
          "type": "uint256"
        }
      ],
      "payable": false,
      "stateMutability": "view",
      "type": "function"
    },
    {
      "constant": false,
      "inputs": [
        {
          "name": "x",
          "type": "address"
        }
      ],
      "name": "toString",
      "outputs": [
        {
          "name": "",
          "type": "string"
        }
      ],
      "payable": false,
      "stateMutability": "nonpayable",
      "type": "function"
    }
  ],
  "bytecode": "0x6080604052600a60005534801561001557600080fd5b50604051602080610ec58339810180604052810190808051906020019092919050505080600260006101000a81548173ffffffffffffffffffffffffffffffffffffffff021916908373ffffffffffffffffffffffffffffffffffffffff16021790555033600160006101000a81548173ffffffffffffffffffffffffffffffffffffffff021916908373ffffffffffffffffffffffffffffffffffffffff16021790555050610dfb806100ca6000396000f300608060405260043610610099576000357c0100000000000000000000000000000000000000000000000000000000900463ffffffff16806356ca623e146101a55780636f9fb98a14610261578063737965561461028c57806379f79de9146102e45780639b96eece14610391578063a9672bad146103e8578063aa20fa7314610429578063b9a2de3a146104a1578063df4c8b351461050e575b6000805434029050600260009054906101000a900473ffffffffffffffffffffffffffffffffffffffff1673ffffffffffffffffffffffffffffffffffffffff1663a9059cbb33836040518363ffffffff167c0100000000000000000000000000000000000000000000000000000000028152600401808373ffffffffffffffffffffffffffffffffffffffff1673ffffffffffffffffffffffffffffffffffffffff16815260200182815260200192505050602060405180830381600087803b15801561016657600080fd5b505af115801561017a573d6000803e3d6000fd5b505050506040513d602081101561019057600080fd5b81019080805190602001909291905050505050005b3480156101b157600080fd5b506101e6600480360381019080803573ffffffffffffffffffffffffffffffffffffffff169060200190929190505050610559565b6040518080602001828103825283818151815260200191508051906020019080838360005b8381101561022657808201518184015260208101905061020b565b50505050905090810190601f1680156102535780820380516001836020036101000a031916815260200191505b509250505060405180910390f35b34801561026d57600080fd5b50610276610645565b6040518082815260200191505060405180910390f35b6102ca600480360381019080803573ffffffffffffffffffffffffffffffffffffffff16906020019092919080359060200190929190505050610664565b604051808215151515815260200191505060405180910390f35b3480156102f057600080fd5b5061030f600480360381019080803590602001909291905050506107a7565b6040518080602001838152602001828103825284818151815260200191508051906020019080838360005b8381101561035557808201518184015260208101905061033a565b50505050905090810190601f1680156103825780820380516001836020036101000a031916815260200191505b50935050505060405180910390f35b34801561039d57600080fd5b506103d2600480360381019080803573ffffffffffffffffffffffffffffffffffffffff169060200190929190505050610854565b6040518082815260200191505060405180910390f35b3480156103f457600080fd5b5061041360048036038101908080359060200190929190505050610955565b6040518082815260200191505060405180910390f35b610487600480360381019080803573ffffffffffffffffffffffffffffffffffffffff169060200190929190803573ffffffffffffffffffffffffffffffffffffffff1690602001909291908035906020019092919050505061097a565b604051808215151515815260200191505060405180910390f35b3480156104ad57600080fd5b506104cc60048036038101908080359060200190929190505050610abe565b604051808273ffffffffffffffffffffffffffffffffffffffff1673ffffffffffffffffffffffffffffffffffffffff16815260200191505060405180910390f35b34801561051a57600080fd5b506105436004803603810190808035906020019092919080359060200190929190505050610c4f565b6040518082815260200191505060405180910390f35b606080600060146040519080825280601f01601f1916602001820160405280156105925781602001602082028038833980820191505090505b509150600090505b601481101561063b578060130360080260020a8473ffffffffffffffffffffffffffffffffffffffff168115156105cd57fe5b047f01000000000000000000000000000000000000000000000000000000000000000282828151811015156105fe57fe5b9060200101907effffffffffffffffffffffffffffffffffffffffffffffffffffffffffffff1916908160001a905350808060010191505061059a565b8192505050919050565b60003073ffffffffffffffffffffffffffffffffffffffff1631905090565b600080600260009054906101000a900473ffffffffffffffffffffffffffffffffffffffff1673ffffffffffffffffffffffffffffffffffffffff166323b872dd3386866040518463ffffffff167c0100000000000000000000000000000000000000000000000000000000028152600401808473ffffffffffffffffffffffffffffffffffffffff1673ffffffffffffffffffffffffffffffffffffffff1681526020018373ffffffffffffffffffffffffffffffffffffffff1673ffffffffffffffffffffffffffffffffffffffff1681526020018281526020019350505050602060405180830381600087803b15801561076057600080fd5b505af1158015610774573d6000803e3d6000fd5b505050506040513d602081101561078a57600080fd5b810190808051906020019092919050505090508091505092915050565b6060600080600160009054906101000a900473ffffffffffffffffffffffffffffffffffffffff1673ffffffffffffffffffffffffffffffffffffffff163373ffffffffffffffffffffffffffffffffffffffff16141561084e576003600085815260200190815260200160002090506108448160000160009054906101000a900473ffffffffffffffffffffffffffffffffffffffff16610559565b8160010154925092505b50915091565b6000600260009054906101000a900473ffffffffffffffffffffffffffffffffffffffff1673ffffffffffffffffffffffffffffffffffffffff166370a08231836040518263ffffffff167c0100000000000000000000000000000000000000000000000000000000028152600401808273ffffffffffffffffffffffffffffffffffffffff1673ffffffffffffffffffffffffffffffffffffffff168152602001915050602060405180830381600087803b15801561091357600080fd5b505af1158015610927573d6000803e3d6000fd5b505050506040513d602081101561093d57600080fd5b81019080805190602001909291905050509050919050565b6000806003600084815260200190815260200160002090508060010154915050919050565b600080600260009054906101000a900473ffffffffffffffffffffffffffffffffffffffff1673ffffffffffffffffffffffffffffffffffffffff1663055c04678686866040518463ffffffff167c0100000000000000000000000000000000000000000000000000000000028152600401808473ffffffffffffffffffffffffffffffffffffffff1673ffffffffffffffffffffffffffffffffffffffff1681526020018373ffffffffffffffffffffffffffffffffffffffff1673ffffffffffffffffffffffffffffffffffffffff1681526020018281526020019350505050602060405180830381600087803b158015610a7657600080fd5b505af1158015610a8a573d6000803e3d6000fd5b505050506040513d6020811015610aa057600080fd5b81019080805190602001909291905050509050809150509392505050565b600080600160009054906101000a900473ffffffffffffffffffffffffffffffffffffffff1673ffffffffffffffffffffffffffffffffffffffff163373ffffffffffffffffffffffffffffffffffffffff161415610c4957600360008481526020019081526020016000209050600015158160020160009054906101000a900460ff1615151415610b4f57600080fd5b60008160020160006101000a81548160ff02191690831515021790555080600360008581526020019081526020016000206000820160009054906101000a900473ffffffffffffffffffffffffffffffffffffffff168160000160006101000a81548173ffffffffffffffffffffffffffffffffffffffff021916908373ffffffffffffffffffffffffffffffffffffffff160217905550600182015481600101556002820160009054906101000a900460ff168160020160006101000a81548160ff0219169083151502179055509050508060000160009054906101000a900473ffffffffffffffffffffffffffffffffffffffff1691505b50919050565b60008060006003600086815260200190815260200160002091508382600101541015610dc457819050838260010181905550338260000160006101000a81548173ffffffffffffffffffffffffffffffffffffffff021916908373ffffffffffffffffffffffffffffffffffffffff16021790555060018260020160006101000a81548160ff02191690831515021790555081600360008781526020019081526020016000206000820160009054906101000a900473ffffffffffffffffffffffffffffffffffffffff168160000160006101000a81548173ffffffffffffffffffffffffffffffffffffffff021916908373ffffffffffffffffffffffffffffffffffffffff160217905550600182015481600101556002820160009054906101000a900460ff168160020160006101000a81548160ff021916908315150217905550905050610dc2600160009054906101000a900473ffffffffffffffffffffffffffffffffffffffff1685610664565b505b8392505050929150505600a165627a7a723058203f3794686131f086314195cf2937166f6120916badf282ba1eeed4c4232195770029",
  "source": "pragma solidity ^0.4.24;\r\nimport \"./XYZToken.sol\";\r\n\r\ncontract AuctionBidding {\r\n  \r\n    struct AuctionHighestBidder {\r\n        address highestBidder;\r\n        uint256 highestBidValue;\r\n        bool active;\r\n    }\r\n\r\n    uint256 unitsOneEthCanBuy = 10; \r\n     \r\n    address auctionOwner;\r\n    XYZToken ftbcToken;\r\n    \r\n    function AuctionBidding(address ftbcTokenAddress) {\r\n        ftbcToken = XYZToken(ftbcTokenAddress);\r\n        auctionOwner = msg.sender; \r\n    }\r\n    \r\n    modifier onlyAdmin () {\r\n        if (msg.sender == auctionOwner) {\r\n            _;\r\n        }\r\n    }\r\n    \r\n    \r\n    /*\r\n    get the balance\r\n    */\r\n    function getBalanceOf(address tokenAddress) public constant returns(uint256) {\r\n        return ftbcToken.balanceOf(tokenAddress);\r\n    }\r\n\r\n    /*\r\n    function buyFTBCToken() public payable returns (uint256)  {\r\n        address myaddr = address(ftbcToken);\r\n        myaddr.sendTransaction(msg.value);\r\n\r\n    }*/\r\n    \r\n   /* function buyTokenForBidding(uint256 value) public payable returns (uint256)  {\r\n        uint256 token = ftbcToken.buyToken(value);\r\n        return token;\r\n\r\n    }*/\r\n    \r\n    function transferAuctionToken(address to, uint256 value) public payable returns (bool) {\r\n        bool status = ftbcToken.transferFrom(msg.sender,to ,value);\r\n        return status;\r\n    }\r\n    \r\n    /*Highest Bidder details for particular auction id*/\r\n    mapping (uint256 => AuctionHighestBidder) auctionHighestBidder;\r\n    \r\n    //If the bidder amount is high, release the token of last bidder\r\n    //Approval function implementation and transfer from using msg.sender\r\n    function saveUserBidForAuction(uint256 auctionId, uint256 bidValue) public returns (uint256) {\r\n        AuctionHighestBidder bidder = auctionHighestBidder[auctionId];\r\n        if (bidder.highestBidValue < bidValue) {\r\n            AuctionHighestBidder lastBidder = bidder;\r\n            //release tokens for him\r\n           // this.releaseAuctionTokens(auctionOwner, lastBidder.highestBidder, lastBidder.highestBidValue);\r\n            bidder.highestBidValue = bidValue;\r\n            bidder.highestBidder = msg.sender;\r\n            bidder.active = true;\r\n            auctionHighestBidder[auctionId] = bidder;\r\n            //ftbcToken.transferFrom(msg.sender,to ,value);\r\n            transferAuctionToken(auctionOwner,bidValue);\r\n        }\r\n        return bidValue;\r\n    }\r\n    \r\n    function releaseAuctionTokens(address from, address to, uint256 value) public payable returns (bool) {\r\n        bool status = ftbcToken.transferBetweenAccounts(from, to, value);\r\n        return status;\r\n    }\r\n    /*\r\n    This function gives me details of higher bidder at any point of time\r\n    ToDo: Return bidder address\r\n    */\r\n    function getHighestBidderByAuctionId(uint256 auctionId) public constant returns (uint256) {\r\n        AuctionHighestBidder storage bidder = auctionHighestBidder[auctionId];\r\n        return bidder.highestBidValue;\r\n    }\r\n    \r\n    /*\r\n    Announce the winner and deactivate auction\r\n    Need help - how to enable cross contract communication\r\n    */\r\n    function announceWinnerForAuction(uint256 auctionId) public onlyAdmin returns (string, uint256) {\r\n        AuctionHighestBidder storage bidder = auctionHighestBidder[auctionId];\r\n        //Deduct coin amount from his wallet..\r\n        //learn how to delete bid from system -- To do: take help from mentor\r\n       // auctionHighestBidder[auctionId] = 0; \r\n        //auctionBidsByUserList[auctionId] = 0;\r\n        return (toString(bidder.highestBidder), bidder.highestBidValue);\r\n    }\r\n    \r\n    //how to clear auction from map or disable auction..\r\n    function endAuction(uint256 auctionId) public onlyAdmin returns (address) {\r\n        AuctionHighestBidder storage bidder = auctionHighestBidder[auctionId];\r\n        if (bidder.active == false) \r\n            throw ;\r\n        bidder.active = false;\r\n        auctionHighestBidder[auctionId] = bidder;\r\n        return bidder.highestBidder;\r\n    }\r\n    \r\n    function() payable{\r\n        uint256 tokenToBuy = msg.value*unitsOneEthCanBuy;\r\n        ftbcToken.transfer(msg.sender, tokenToBuy);\r\n       // address(this).transfer(msg.value);\r\n    }\r\n    \r\n    function getContractBalance() public constant returns (uint256) {\r\n        return address(this).balance;\r\n    }\r\n    \r\n    function toString(address x) returns (string) {\r\n    bytes memory b = new bytes(20);\r\n    for (uint i = 0; i < 20; i++)\r\n        b[i] = byte(uint8(uint(x) / (2**(8*(19 - i)))));\r\n    return string(b);\r\n}\r\n\r\n}",
  "sourcePath": "c:\\blockchain\\auction-app-dev\\auction-code\\final\\contracts\\AuctionBidding.sol",
  "compiler": {
    "name": "solc",
    "version": "0.4.24+commit.e67f0147.Emscripten.clang"
  },
  "schemaVersion": "2.0.1",
  "updatedAt": "2018-08-06T02:50:20.307Z"
}