{
  "contractName": "Token",
  "abi": [
    {
      "anonymous": false,
      "inputs": [
        {
          "indexed": true,
          "name": "_from",
          "type": "address"
        },
        {
          "indexed": true,
          "name": "_to",
          "type": "address"
        },
        {
          "indexed": false,
          "name": "_value",
          "type": "uint256"
        }
      ],
      "name": "Transfer",
      "type": "event"
    },
    {
      "anonymous": false,
      "inputs": [
        {
          "indexed": true,
          "name": "_owner",
          "type": "address"
        },
        {
          "indexed": true,
          "name": "_spender",
          "type": "address"
        },
        {
          "indexed": false,
          "name": "_value",
          "type": "uint256"
        }
      ],
      "name": "Approval",
      "type": "event"
    },
    {
      "constant": true,
      "inputs": [],
      "name": "totalSupply",
      "outputs": [
        {
          "name": "supply",
          "type": "uint256"
        }
      ],
      "payable": false,
      "stateMutability": "view",
      "type": "function"
    },
    {
      "constant": true,
      "inputs": [
        {
          "name": "_owner",
          "type": "address"
        }
      ],
      "name": "balanceOf",
      "outputs": [
        {
          "name": "balance",
          "type": "uint256"
        }
      ],
      "payable": false,
      "stateMutability": "view",
      "type": "function"
    },
    {
      "constant": false,
      "inputs": [
        {
          "name": "_to",
          "type": "address"
        },
        {
          "name": "_value",
          "type": "uint256"
        }
      ],
      "name": "transfer",
      "outputs": [
        {
          "name": "success",
          "type": "bool"
        }
      ],
      "payable": false,
      "stateMutability": "nonpayable",
      "type": "function"
    },
    {
      "constant": false,
      "inputs": [
        {
          "name": "_from",
          "type": "address"
        },
        {
          "name": "_to",
          "type": "address"
        },
        {
          "name": "_value",
          "type": "uint256"
        }
      ],
      "name": "transferFrom",
      "outputs": [
        {
          "name": "success",
          "type": "bool"
        }
      ],
      "payable": false,
      "stateMutability": "nonpayable",
      "type": "function"
    },
    {
      "constant": false,
      "inputs": [
        {
          "name": "_spender",
          "type": "address"
        },
        {
          "name": "_value",
          "type": "uint256"
        }
      ],
      "name": "approve",
      "outputs": [
        {
          "name": "success",
          "type": "bool"
        }
      ],
      "payable": false,
      "stateMutability": "nonpayable",
      "type": "function"
    },
    {
      "constant": true,
      "inputs": [
        {
          "name": "_owner",
          "type": "address"
        },
        {
          "name": "_spender",
          "type": "address"
        }
      ],
      "name": "allowance",
      "outputs": [
        {
          "name": "remaining",
          "type": "uint256"
        }
      ],
      "payable": false,
      "stateMutability": "view",
      "type": "function"
    },
    {
      "constant": false,
      "inputs": [
        {
          "name": "amount",
          "type": "uint256"
        }
      ],
      "name": "mint",
      "outputs": [
        {
          "name": "",
          "type": "uint256"
        }
      ],
      "payable": false,
      "stateMutability": "nonpayable",
      "type": "function"
    },
    {
      "constant": false,
      "inputs": [
        {
          "name": "amount",
          "type": "uint256"
        }
      ],
      "name": "burn",
      "outputs": [
        {
          "name": "",
          "type": "uint256"
        }
      ],
      "payable": false,
      "stateMutability": "nonpayable",
      "type": "function"
    }
  ],
  "bytecode": "0x608060405234801561001057600080fd5b506103c4806100206000396000f30060806040526004361061008e576000357c0100000000000000000000000000000000000000000000000000000000900463ffffffff168063095ea7b31461009357806318160ddd146100f857806323b872dd1461012357806342966c68146101a857806370a08231146101e9578063a0712d6814610240578063a9059cbb14610281578063dd62ed3e146102e6575b600080fd5b34801561009f57600080fd5b506100de600480360381019080803573ffffffffffffffffffffffffffffffffffffffff1690602001909291908035906020019092919050505061035d565b604051808215151515815260200191505060405180910390f35b34801561010457600080fd5b5061010d610365565b6040518082815260200191505060405180910390f35b34801561012f57600080fd5b5061018e600480360381019080803573ffffffffffffffffffffffffffffffffffffffff169060200190929190803573ffffffffffffffffffffffffffffffffffffffff1690602001909291908035906020019092919050505061036a565b604051808215151515815260200191505060405180910390f35b3480156101b457600080fd5b506101d360048036038101908080359060200190929190505050610373565b6040518082815260200191505060405180910390f35b3480156101f557600080fd5b5061022a600480360381019080803573ffffffffffffffffffffffffffffffffffffffff16906020019092919050505061037a565b6040518082815260200191505060405180910390f35b34801561024c57600080fd5b5061026b60048036038101908080359060200190929190505050610381565b6040518082815260200191505060405180910390f35b34801561028d57600080fd5b506102cc600480360381019080803573ffffffffffffffffffffffffffffffffffffffff16906020019092919080359060200190929190505050610388565b604051808215151515815260200191505060405180910390f35b3480156102f257600080fd5b50610347600480360381019080803573ffffffffffffffffffffffffffffffffffffffff169060200190929190803573ffffffffffffffffffffffffffffffffffffffff169060200190929190505050610390565b6040518082815260200191505060405180910390f35b600092915050565b600090565b60009392505050565b6000919050565b6000919050565b6000919050565b600092915050565b6000929150505600a165627a7a723058205e657b46a7b4f61b6d764c730f239d09af196683e6cbab0222b8530bbc578bde0029",
  "source": "pragma solidity ^0.4.24;\n\ncontract Token {\n    function totalSupply() constant returns (uint256 supply) {}\n    function balanceOf(address _owner) constant returns (uint256 balance) {}\n    function transfer(address _to, uint256 _value) returns (bool success) {}\n    function transferFrom(address _from, address _to, uint256 _value) returns (bool success) {}\n    function approve(address _spender, uint256 _value) returns (bool success) {}\n    function allowance(address _owner, address _spender) constant returns (uint256 remaining) {}\n    function mint(uint256 amount) public returns (uint256) {}\n    function burn(uint256 amount) public returns (uint256) {}\n    event Transfer(address indexed _from, address indexed _to, uint256 _value);\n    event Approval(address indexed _owner, address indexed _spender, uint256 _value);\n}\n\n\ncontract XYZToken is Token { \n    string public name;                   \n    uint8 public decimals;                \n    string public symbol;                 \n    uint256 public unitsOneEthCanBuy;     \n    uint256 public totalEthInWei;         \n    address public fundsWallet;         \n    address public local_from;\n    uint256 public local_value;\n    address public local_to;\n\n    constructor() public payable {\n        balances[msg.sender] = 1000000000000000000000;               \n        totalSupply = 1000000000000000000000;                        \n        name = \"XYZToken\";                                   \n        decimals = 18;                                             \n        symbol = \"XYZ\";                                             \n        unitsOneEthCanBuy = 10;                                      \n        fundsWallet = msg.sender;                                    \n    }\n\n    modifier onlyAdmin () {\n        if (msg.sender == fundsWallet) {\n            _;\n        }\n    }\n    function mint(uint256 amount) public onlyAdmin returns (uint256) {\n        totalSupply = totalSupply + amount;\n        balances[msg.sender] =  balances[msg.sender] + amount;\n        return totalSupply;\n    }\n    \n    function burn(uint256 amount) public onlyAdmin returns (uint256) {\n        totalSupply = totalSupply - amount;\n         balances[msg.sender] =  balances[msg.sender] - amount;\n         return totalSupply;\n    }\n\n/*function transfer(address _to, uint256 _value) returns (bool success) {\n        if (balances[msg.sender] >= _value && balances[_to] + _value > balances[_to]) {\n            balances[msg.sender] -= _value;\n            balances[_to] += _value;\n            Transfer(msg.sender, _to, _value);\n            return true;\n        } else { return false; }\n    }\n*/\n    function transfer(address _to, uint256 _value) returns (bool success) {\n        if (balances[msg.sender] >= _value && balances[_to] + _value > balances[_to]) {\n            balances[msg.sender] -= _value;\n            balances[_to] += _value;\n            Transfer(msg.sender, _to, _value);\n            return true;\n        } else { return false; }\n    }\n\n    function transferBetweenAccounts(address _from, address _to, uint256 _value) returns (bool success) {\n            if (balances[_from] >= _value && balances[_to] + _value > balances[_to]) {\n            balances[_to] += _value;\n            balances[_from] -= _value;\n            Transfer(_from, _to, _value);\n            return true;\n        } else { return false; }\n    }\n    function transferFrom(address _from, address _to, uint256 _value) returns (bool success) {\n        local_from = _from;\n        local_to = _to;\n        local_value = _value;\n        address local_sender = msg.sender;\n        if (balances[_from] >= _value && allowed[_from][msg.sender] >= _value && balances[_to] + _value > balances[_to]) {\n            balances[_to] += _value;\n            balances[_from] -= _value;\n            allowed[_from][msg.sender] -= _value;\n            Transfer(_from, _to, _value);\n            return true;\n        } else { return false; }\n    }\n\n\n    function balanceOf(address _owner) constant returns (uint256) {\n        return balances[_owner];\n    }\n\n    function approve(address _spender, uint256 _value) returns (bool success) {\n        allowed[msg.sender][_spender] = _value;\n        Approval(msg.sender, _spender, _value);\n        return true;\n    }\n\n    function allowance(address _owner, address _spender) constant returns (uint256 remaining) {\n      return allowed[_owner][_spender];\n    }\n\n    mapping (address => uint256) balances;\n    mapping (address => mapping (address => uint256)) allowed;\n    uint256 public totalSupply;\n\n    function() payable{\n        totalEthInWei = totalEthInWei + msg.value;\n        uint256 amount = msg.value * unitsOneEthCanBuy;\n        require(balances[fundsWallet] >= amount);\n        balances[fundsWallet] = balances[fundsWallet] - amount;\n        balances[msg.sender] = balances[msg.sender] + amount;\n        Transfer(fundsWallet, msg.sender, amount); \n        fundsWallet.transfer(msg.value);                               \n    }\n\n}\n\n\n",
  "sourcePath": "C:\\Users\\rkuma\\final\\contracts\\XYZToken.sol",
  "compiler": {
    "name": "solc",
    "version": "0.4.24+commit.e67f0147.Emscripten.clang"
  },
  "schemaVersion": "2.0.1",
  "updatedAt": "2018-08-11T12:20:27.443Z"
}