{
  "contractName": "XYZToken",
  "abi": [
    {
      "constant": true,
      "inputs": [],
      "name": "name",
      "outputs": [
        {
          "name": "",
          "type": "string"
        }
      ],
      "payable": false,
      "stateMutability": "view",
      "type": "function"
    },
    {
      "constant": true,
      "inputs": [],
      "name": "totalSupply",
      "outputs": [
        {
          "name": "",
          "type": "uint256"
        }
      ],
      "payable": false,
      "stateMutability": "view",
      "type": "function"
    },
    {
      "constant": true,
      "inputs": [],
      "name": "fundsWallet",
      "outputs": [
        {
          "name": "",
          "type": "address"
        }
      ],
      "payable": false,
      "stateMutability": "view",
      "type": "function"
    },
    {
      "constant": true,
      "inputs": [],
      "name": "decimals",
      "outputs": [
        {
          "name": "",
          "type": "uint8"
        }
      ],
      "payable": false,
      "stateMutability": "view",
      "type": "function"
    },
    {
      "constant": true,
      "inputs": [],
      "name": "unitsOneEthCanBuy",
      "outputs": [
        {
          "name": "",
          "type": "uint256"
        }
      ],
      "payable": false,
      "stateMutability": "view",
      "type": "function"
    },
    {
      "constant": true,
      "inputs": [],
      "name": "local_from",
      "outputs": [
        {
          "name": "",
          "type": "address"
        }
      ],
      "payable": false,
      "stateMutability": "view",
      "type": "function"
    },
    {
      "constant": true,
      "inputs": [],
      "name": "local_to",
      "outputs": [
        {
          "name": "",
          "type": "address"
        }
      ],
      "payable": false,
      "stateMutability": "view",
      "type": "function"
    },
    {
      "constant": true,
      "inputs": [],
      "name": "totalEthInWei",
      "outputs": [
        {
          "name": "",
          "type": "uint256"
        }
      ],
      "payable": false,
      "stateMutability": "view",
      "type": "function"
    },
    {
      "constant": true,
      "inputs": [],
      "name": "symbol",
      "outputs": [
        {
          "name": "",
          "type": "string"
        }
      ],
      "payable": false,
      "stateMutability": "view",
      "type": "function"
    },
    {
      "constant": true,
      "inputs": [],
      "name": "local_value",
      "outputs": [
        {
          "name": "",
          "type": "uint256"
        }
      ],
      "payable": false,
      "stateMutability": "view",
      "type": "function"
    },
    {
      "inputs": [],
      "payable": true,
      "stateMutability": "payable",
      "type": "constructor"
    },
    {
      "payable": true,
      "stateMutability": "payable",
      "type": "fallback"
    },
    {
      "anonymous": false,
      "inputs": [
        {
          "indexed": true,
          "name": "_from",
          "type": "address"
        },
        {
          "indexed": true,
          "name": "_to",
          "type": "address"
        },
        {
          "indexed": false,
          "name": "_value",
          "type": "uint256"
        }
      ],
      "name": "Transfer",
      "type": "event"
    },
    {
      "anonymous": false,
      "inputs": [
        {
          "indexed": true,
          "name": "_owner",
          "type": "address"
        },
        {
          "indexed": true,
          "name": "_spender",
          "type": "address"
        },
        {
          "indexed": false,
          "name": "_value",
          "type": "uint256"
        }
      ],
      "name": "Approval",
      "type": "event"
    },
    {
      "constant": false,
      "inputs": [
        {
          "name": "amount",
          "type": "uint256"
        }
      ],
      "name": "mint",
      "outputs": [
        {
          "name": "",
          "type": "uint256"
        }
      ],
      "payable": false,
      "stateMutability": "nonpayable",
      "type": "function"
    },
    {
      "constant": false,
      "inputs": [
        {
          "name": "amount",
          "type": "uint256"
        }
      ],
      "name": "burn",
      "outputs": [
        {
          "name": "",
          "type": "uint256"
        }
      ],
      "payable": false,
      "stateMutability": "nonpayable",
      "type": "function"
    },
    {
      "constant": false,
      "inputs": [
        {
          "name": "_to",
          "type": "address"
        },
        {
          "name": "_value",
          "type": "uint256"
        }
      ],
      "name": "transfer",
      "outputs": [
        {
          "name": "success",
          "type": "bool"
        }
      ],
      "payable": false,
      "stateMutability": "nonpayable",
      "type": "function"
    },
    {
      "constant": false,
      "inputs": [
        {
          "name": "_from",
          "type": "address"
        },
        {
          "name": "_to",
          "type": "address"
        },
        {
          "name": "_value",
          "type": "uint256"
        }
      ],
      "name": "transferBetweenAccounts",
      "outputs": [
        {
          "name": "success",
          "type": "bool"
        }
      ],
      "payable": false,
      "stateMutability": "nonpayable",
      "type": "function"
    },
    {
      "constant": false,
      "inputs": [
        {
          "name": "_from",
          "type": "address"
        },
        {
          "name": "_to",
          "type": "address"
        },
        {
          "name": "_value",
          "type": "uint256"
        }
      ],
      "name": "transferFrom",
      "outputs": [
        {
          "name": "success",
          "type": "bool"
        }
      ],
      "payable": false,
      "stateMutability": "nonpayable",
      "type": "function"
    },
    {
      "constant": true,
      "inputs": [
        {
          "name": "_owner",
          "type": "address"
        }
      ],
      "name": "balanceOf",
      "outputs": [
        {
          "name": "",
          "type": "uint256"
        }
      ],
      "payable": false,
      "stateMutability": "view",
      "type": "function"
    },
    {
      "constant": false,
      "inputs": [
        {
          "name": "_spender",
          "type": "address"
        },
        {
          "name": "_value",
          "type": "uint256"
        }
      ],
      "name": "approve",
      "outputs": [
        {
          "name": "success",
          "type": "bool"
        }
      ],
      "payable": false,
      "stateMutability": "nonpayable",
      "type": "function"
    },
    {
      "constant": true,
      "inputs": [
        {
          "name": "_owner",
          "type": "address"
        },
        {
          "name": "_spender",
          "type": "address"
        }
      ],
      "name": "allowance",
      "outputs": [
        {
          "name": "remaining",
          "type": "uint256"
        }
      ],
      "payable": false,
      "stateMutability": "view",
      "type": "function"
    }
  ],
  "bytecode": "0x6080604052683635c9adc5dea00000600960003373ffffffffffffffffffffffffffffffffffffffff1673ffffffffffffffffffffffffffffffffffffffff16815260200190815260200160002081905550683635c9adc5dea00000600b819055506040805190810160405280600881526020017f58595a546f6b656e00000000000000000000000000000000000000000000000081525060009080519060200190620000ae92919062000168565b506012600160006101000a81548160ff021916908360ff1602179055506040805190810160405280600381526020017f58595a0000000000000000000000000000000000000000000000000000000000815250600290805190602001906200011892919062000168565b50600a60038190555033600560006101000a81548173ffffffffffffffffffffffffffffffffffffffff021916908373ffffffffffffffffffffffffffffffffffffffff16021790555062000217565b828054600181600116156101000203166002900490600052602060002090601f016020900481019282601f10620001ab57805160ff1916838001178555620001dc565b82800160010185558215620001dc579182015b82811115620001db578251825591602001919060010190620001be565b5b509050620001eb9190620001ef565b5090565b6200021491905b8082111562000210576000816000905550600101620001f6565b5090565b90565b6116ee80620002276000396000f3006080604052600436106100fc576000357c0100000000000000000000000000000000000000000000000000000000900463ffffffff168063055c0467146103c157806306fdde0314610446578063095ea7b3146104d657806318160ddd1461053b5780632194f3a21461056657806323b872dd146105bd578063313ce5671461064257806342966c681461067357806365f2bc2e146106b45780636c74c4f9146106df57806370a08231146107365780638603f6de1461078d578063933ba413146107e457806395d89b411461080f578063a0712d681461089f578063a9059cbb146108e0578063b4998d3014610945578063dd62ed3e14610970575b60003460045401600481905550600354340290508060096000600560009054906101000a900473ffffffffffffffffffffffffffffffffffffffff1673ffffffffffffffffffffffffffffffffffffffff1673ffffffffffffffffffffffffffffffffffffffff168152602001908152602001600020541015151561018057600080fd5b8060096000600560009054906101000a900473ffffffffffffffffffffffffffffffffffffffff1673ffffffffffffffffffffffffffffffffffffffff1673ffffffffffffffffffffffffffffffffffffffff168152602001908152602001600020540360096000600560009054906101000a900473ffffffffffffffffffffffffffffffffffffffff1673ffffffffffffffffffffffffffffffffffffffff1673ffffffffffffffffffffffffffffffffffffffff1681526020019081526020016000208190555080600960003373ffffffffffffffffffffffffffffffffffffffff1673ffffffffffffffffffffffffffffffffffffffff1681526020019081526020016000205401600960003373ffffffffffffffffffffffffffffffffffffffff1673ffffffffffffffffffffffffffffffffffffffff168152602001908152602001600020819055503373ffffffffffffffffffffffffffffffffffffffff16600560009054906101000a900473ffffffffffffffffffffffffffffffffffffffff1673ffffffffffffffffffffffffffffffffffffffff167fddf252ad1be2c89b69c2b068fc378daa952ba7f163c4a11628f55a4df523b3ef836040518082815260200191505060405180910390a3600560009054906101000a900473ffffffffffffffffffffffffffffffffffffffff1673ffffffffffffffffffffffffffffffffffffffff166108fc349081150290604051600060405180830381858888f193505050501580156103bd573d6000803e3d6000fd5b5050005b3480156103cd57600080fd5b5061042c600480360381019080803573ffffffffffffffffffffffffffffffffffffffff169060200190929190803573ffffffffffffffffffffffffffffffffffffffff169060200190929190803590602001909291905050506109e7565b604051808215151515815260200191505060405180910390f35b34801561045257600080fd5b5061045b610bd0565b6040518080602001828103825283818151815260200191508051906020019080838360005b8381101561049b578082015181840152602081019050610480565b50505050905090810190601f1680156104c85780820380516001836020036101000a031916815260200191505b509250505060405180910390f35b3480156104e257600080fd5b50610521600480360381019080803573ffffffffffffffffffffffffffffffffffffffff16906020019092919080359060200190929190505050610c6e565b604051808215151515815260200191505060405180910390f35b34801561054757600080fd5b50610550610d60565b6040518082815260200191505060405180910390f35b34801561057257600080fd5b5061057b610d66565b604051808273ffffffffffffffffffffffffffffffffffffffff1673ffffffffffffffffffffffffffffffffffffffff16815260200191505060405180910390f35b3480156105c957600080fd5b50610628600480360381019080803573ffffffffffffffffffffffffffffffffffffffff169060200190929190803573ffffffffffffffffffffffffffffffffffffffff16906020019092919080359060200190929190505050610d8c565b604051808215151515815260200191505060405180910390f35b34801561064e57600080fd5b50610657611115565b604051808260ff1660ff16815260200191505060405180910390f35b34801561067f57600080fd5b5061069e60048036038101908080359060200190929190505050611128565b6040518082815260200191505060405180910390f35b3480156106c057600080fd5b506106c961121b565b6040518082815260200191505060405180910390f35b3480156106eb57600080fd5b506106f4611221565b604051808273ffffffffffffffffffffffffffffffffffffffff1673ffffffffffffffffffffffffffffffffffffffff16815260200191505060405180910390f35b34801561074257600080fd5b50610777600480360381019080803573ffffffffffffffffffffffffffffffffffffffff169060200190929190505050611247565b6040518082815260200191505060405180910390f35b34801561079957600080fd5b506107a2611290565b604051808273ffffffffffffffffffffffffffffffffffffffff1673ffffffffffffffffffffffffffffffffffffffff16815260200191505060405180910390f35b3480156107f057600080fd5b506107f96112b6565b6040518082815260200191505060405180910390f35b34801561081b57600080fd5b506108246112bc565b6040518080602001828103825283818151815260200191508051906020019080838360005b83811015610864578082015181840152602081019050610849565b50505050905090810190601f1680156108915780820380516001836020036101000a031916815260200191505b509250505060405180910390f35b3480156108ab57600080fd5b506108ca6004803603810190808035906020019092919050505061135a565b6040518082815260200191505060405180910390f35b3480156108ec57600080fd5b5061092b600480360381019080803573ffffffffffffffffffffffffffffffffffffffff1690602001909291908035906020019092919050505061144d565b604051808215151515815260200191505060405180910390f35b34801561095157600080fd5b5061095a611635565b6040518082815260200191505060405180910390f35b34801561097c57600080fd5b506109d1600480360381019080803573ffffffffffffffffffffffffffffffffffffffff169060200190929190803573ffffffffffffffffffffffffffffffffffffffff16906020019092919050505061163b565b6040518082815260200191505060405180910390f35b600081600960008673ffffffffffffffffffffffffffffffffffffffff1673ffffffffffffffffffffffffffffffffffffffff1681526020019081526020016000205410158015610ab75750600960008473ffffffffffffffffffffffffffffffffffffffff1673ffffffffffffffffffffffffffffffffffffffff1681526020019081526020016000205482600960008673ffffffffffffffffffffffffffffffffffffffff1673ffffffffffffffffffffffffffffffffffffffff1681526020019081526020016000205401115b15610bc45781600960008573ffffffffffffffffffffffffffffffffffffffff1673ffffffffffffffffffffffffffffffffffffffff1681526020019081526020016000206000828254019250508190555081600960008673ffffffffffffffffffffffffffffffffffffffff1673ffffffffffffffffffffffffffffffffffffffff168152602001908152602001600020600082825403925050819055508273ffffffffffffffffffffffffffffffffffffffff168473ffffffffffffffffffffffffffffffffffffffff167fddf252ad1be2c89b69c2b068fc378daa952ba7f163c4a11628f55a4df523b3ef846040518082815260200191505060405180910390a360019050610bc9565b600090505b9392505050565b60008054600181600116156101000203166002900480601f016020809104026020016040519081016040528092919081815260200182805460018160011615610100020316600290048015610c665780601f10610c3b57610100808354040283529160200191610c66565b820191906000526020600020905b815481529060010190602001808311610c4957829003601f168201915b505050505081565b600081600a60003373ffffffffffffffffffffffffffffffffffffffff1673ffffffffffffffffffffffffffffffffffffffff16815260200190815260200160002060008573ffffffffffffffffffffffffffffffffffffffff1673ffffffffffffffffffffffffffffffffffffffff168152602001908152602001600020819055508273ffffffffffffffffffffffffffffffffffffffff163373ffffffffffffffffffffffffffffffffffffffff167f8c5be1e5ebec7d5bd14f71427d1e84f3dd0314c0f7b2291e5b200ac8c7c3b925846040518082815260200191505060405180910390a36001905092915050565b600b5481565b600560009054906101000a900473ffffffffffffffffffffffffffffffffffffffff1681565b60008084600660006101000a81548173ffffffffffffffffffffffffffffffffffffffff021916908373ffffffffffffffffffffffffffffffffffffffff16021790555083600860006101000a81548173ffffffffffffffffffffffffffffffffffffffff021916908373ffffffffffffffffffffffffffffffffffffffff1602179055508260078190555033905082600960008773ffffffffffffffffffffffffffffffffffffffff1673ffffffffffffffffffffffffffffffffffffffff1681526020019081526020016000205410158015610ee6575082600a60008773ffffffffffffffffffffffffffffffffffffffff1673ffffffffffffffffffffffffffffffffffffffff16815260200190815260200160002060003373ffffffffffffffffffffffffffffffffffffffff1673ffffffffffffffffffffffffffffffffffffffff1681526020019081526020016000205410155b8015610f715750600960008573ffffffffffffffffffffffffffffffffffffffff1673ffffffffffffffffffffffffffffffffffffffff1681526020019081526020016000205483600960008773ffffffffffffffffffffffffffffffffffffffff1673ffffffffffffffffffffffffffffffffffffffff1681526020019081526020016000205401115b156111085782600960008673ffffffffffffffffffffffffffffffffffffffff1673ffffffffffffffffffffffffffffffffffffffff1681526020019081526020016000206000828254019250508190555082600960008773ffffffffffffffffffffffffffffffffffffffff1673ffffffffffffffffffffffffffffffffffffffff1681526020019081526020016000206000828254039250508190555082600a60008773ffffffffffffffffffffffffffffffffffffffff1673ffffffffffffffffffffffffffffffffffffffff16815260200190815260200160002060003373ffffffffffffffffffffffffffffffffffffffff1673ffffffffffffffffffffffffffffffffffffffff168152602001908152602001600020600082825403925050819055508373ffffffffffffffffffffffffffffffffffffffff168573ffffffffffffffffffffffffffffffffffffffff167fddf252ad1be2c89b69c2b068fc378daa952ba7f163c4a11628f55a4df523b3ef856040518082815260200191505060405180910390a36001915061110d565b600091505b509392505050565b600160009054906101000a900460ff1681565b6000600560009054906101000a900473ffffffffffffffffffffffffffffffffffffffff1673ffffffffffffffffffffffffffffffffffffffff163373ffffffffffffffffffffffffffffffffffffffff1614156112165781600b5403600b8190555081600960003373ffffffffffffffffffffffffffffffffffffffff1673ffffffffffffffffffffffffffffffffffffffff1681526020019081526020016000205403600960003373ffffffffffffffffffffffffffffffffffffffff1673ffffffffffffffffffffffffffffffffffffffff16815260200190815260200160002081905550600b5490505b919050565b60035481565b600660009054906101000a900473ffffffffffffffffffffffffffffffffffffffff1681565b6000600960008373ffffffffffffffffffffffffffffffffffffffff1673ffffffffffffffffffffffffffffffffffffffff168152602001908152602001600020549050919050565b600860009054906101000a900473ffffffffffffffffffffffffffffffffffffffff1681565b60045481565b60028054600181600116156101000203166002900480601f0160208091040260200160405190810160405280929190818152602001828054600181600116156101000203166002900480156113525780601f1061132757610100808354040283529160200191611352565b820191906000526020600020905b81548152906001019060200180831161133557829003601f168201915b505050505081565b6000600560009054906101000a900473ffffffffffffffffffffffffffffffffffffffff1673ffffffffffffffffffffffffffffffffffffffff163373ffffffffffffffffffffffffffffffffffffffff1614156114485781600b5401600b8190555081600960003373ffffffffffffffffffffffffffffffffffffffff1673ffffffffffffffffffffffffffffffffffffffff1681526020019081526020016000205401600960003373ffffffffffffffffffffffffffffffffffffffff1673ffffffffffffffffffffffffffffffffffffffff16815260200190815260200160002081905550600b5490505b919050565b600081600960003373ffffffffffffffffffffffffffffffffffffffff1673ffffffffffffffffffffffffffffffffffffffff168152602001908152602001600020541015801561151d5750600960008473ffffffffffffffffffffffffffffffffffffffff1673ffffffffffffffffffffffffffffffffffffffff1681526020019081526020016000205482600960008673ffffffffffffffffffffffffffffffffffffffff1673ffffffffffffffffffffffffffffffffffffffff1681526020019081526020016000205401115b1561162a5781600960003373ffffffffffffffffffffffffffffffffffffffff1673ffffffffffffffffffffffffffffffffffffffff1681526020019081526020016000206000828254039250508190555081600960008573ffffffffffffffffffffffffffffffffffffffff1673ffffffffffffffffffffffffffffffffffffffff168152602001908152602001600020600082825401925050819055508273ffffffffffffffffffffffffffffffffffffffff163373ffffffffffffffffffffffffffffffffffffffff167fddf252ad1be2c89b69c2b068fc378daa952ba7f163c4a11628f55a4df523b3ef846040518082815260200191505060405180910390a36001905061162f565b600090505b92915050565b60075481565b6000600a60008473ffffffffffffffffffffffffffffffffffffffff1673ffffffffffffffffffffffffffffffffffffffff16815260200190815260200160002060008373ffffffffffffffffffffffffffffffffffffffff1673ffffffffffffffffffffffffffffffffffffffff168152602001908152602001600020549050929150505600a165627a7a723058203fd99d243059565a2673fb53cee3c4f6673faa0a1750c3fb1b07a54f85182e790029",
  "source": "pragma solidity ^0.4.24;\r\n\r\ncontract Token {\r\n    function totalSupply() constant returns (uint256 supply) {}\r\n    function balanceOf(address _owner) constant returns (uint256 balance) {}\r\n    function transfer(address _to, uint256 _value) returns (bool success) {}\r\n    function transferFrom(address _from, address _to, uint256 _value) returns (bool success) {}\r\n    function approve(address _spender, uint256 _value) returns (bool success) {}\r\n    function allowance(address _owner, address _spender) constant returns (uint256 remaining) {}\r\n    function mint(uint256 amount) public returns (uint256) {}\r\n    function burn(uint256 amount) public returns (uint256) {}\r\n    event Transfer(address indexed _from, address indexed _to, uint256 _value);\r\n    event Approval(address indexed _owner, address indexed _spender, uint256 _value);\r\n}\r\n\r\n\r\ncontract XYZToken is Token { \r\n    string public name;                   \r\n    uint8 public decimals;                \r\n    string public symbol;                 \r\n    uint256 public unitsOneEthCanBuy;     \r\n    uint256 public totalEthInWei;         \r\n    address public fundsWallet;         \r\n    address public local_from;\r\n    uint256 public local_value;\r\n    address public local_to;\r\n\r\n    constructor() public payable {\r\n        balances[msg.sender] = 1000000000000000000000;               \r\n        totalSupply = 1000000000000000000000;                        \r\n        name = \"XYZToken\";                                   \r\n        decimals = 18;                                             \r\n        symbol = \"XYZ\";                                             \r\n        unitsOneEthCanBuy = 10;                                      \r\n        fundsWallet = msg.sender;                                    \r\n    }\r\n\r\n    modifier onlyAdmin () {\r\n        if (msg.sender == fundsWallet) {\r\n            _;\r\n        }\r\n    }\r\n    function mint(uint256 amount) public onlyAdmin returns (uint256) {\r\n        totalSupply = totalSupply + amount;\r\n        balances[msg.sender] =  balances[msg.sender] + amount;\r\n        return totalSupply;\r\n    }\r\n    \r\n    function burn(uint256 amount) public onlyAdmin returns (uint256) {\r\n        totalSupply = totalSupply - amount;\r\n         balances[msg.sender] =  balances[msg.sender] - amount;\r\n         return totalSupply;\r\n    }\r\n\r\n/*function transfer(address _to, uint256 _value) returns (bool success) {\r\n        if (balances[msg.sender] >= _value && balances[_to] + _value > balances[_to]) {\r\n            balances[msg.sender] -= _value;\r\n            balances[_to] += _value;\r\n            Transfer(msg.sender, _to, _value);\r\n            return true;\r\n        } else { return false; }\r\n    }\r\n*/\r\n    function transfer(address _to, uint256 _value) returns (bool success) {\r\n        if (balances[msg.sender] >= _value && balances[_to] + _value > balances[_to]) {\r\n            balances[msg.sender] -= _value;\r\n            balances[_to] += _value;\r\n            Transfer(msg.sender, _to, _value);\r\n            return true;\r\n        } else { return false; }\r\n    }\r\n\r\n    function transferBetweenAccounts(address _from, address _to, uint256 _value) returns (bool success) {\r\n            if (balances[_from] >= _value && balances[_to] + _value > balances[_to]) {\r\n            balances[_to] += _value;\r\n            balances[_from] -= _value;\r\n            Transfer(_from, _to, _value);\r\n            return true;\r\n        } else { return false; }\r\n    }\r\n    function transferFrom(address _from, address _to, uint256 _value) returns (bool success) {\r\n        local_from = _from;\r\n        local_to = _to;\r\n        local_value = _value;\r\n        address local_sender = msg.sender;\r\n        if (balances[_from] >= _value && allowed[_from][msg.sender] >= _value && balances[_to] + _value > balances[_to]) {\r\n            balances[_to] += _value;\r\n            balances[_from] -= _value;\r\n            allowed[_from][msg.sender] -= _value;\r\n            Transfer(_from, _to, _value);\r\n            return true;\r\n        } else { return false; }\r\n    }\r\n\r\n\r\n    function balanceOf(address _owner) constant returns (uint256) {\r\n        return balances[_owner];\r\n    }\r\n\r\n    function approve(address _spender, uint256 _value) returns (bool success) {\r\n        allowed[msg.sender][_spender] = _value;\r\n        Approval(msg.sender, _spender, _value);\r\n        return true;\r\n    }\r\n\r\n    function allowance(address _owner, address _spender) constant returns (uint256 remaining) {\r\n      return allowed[_owner][_spender];\r\n    }\r\n\r\n    mapping (address => uint256) balances;\r\n    mapping (address => mapping (address => uint256)) allowed;\r\n    uint256 public totalSupply;\r\n\r\n    function() payable{\r\n        totalEthInWei = totalEthInWei + msg.value;\r\n        uint256 amount = msg.value * unitsOneEthCanBuy;\r\n        require(balances[fundsWallet] >= amount);\r\n        balances[fundsWallet] = balances[fundsWallet] - amount;\r\n        balances[msg.sender] = balances[msg.sender] + amount;\r\n        Transfer(fundsWallet, msg.sender, amount); \r\n        fundsWallet.transfer(msg.value);                               \r\n    }\r\n\r\n}\r\n\r\n\r\n",
  "sourcePath": "c:\\blockchain\\auction-app-dev\\auction-code\\final\\contracts\\XYZToken.sol",
  "compiler": {
    "name": "solc",
    "version": "0.4.24+commit.e67f0147.Emscripten.clang"
  },
  "schemaVersion": "2.0.1",
  "updatedAt": "2018-08-06T02:50:20.326Z"
}